{
  "_format": "hh-sol-artifact-1",
  "contractName": "UniswapPair",
  "sourceName": "contracts/UniswapPair.sol",
  "abi": [
    {
      "inputs": [
        {
          "internalType": "address",
          "name": "_token0",
          "type": "address"
        },
        {
          "internalType": "address",
          "name": "_token1",
          "type": "address"
        }
      ],
      "stateMutability": "nonpayable",
      "type": "constructor"
    },
    {
      "anonymous": false,
      "inputs": [
        {
          "indexed": true,
          "internalType": "address",
          "name": "provider",
          "type": "address"
        },
        {
          "indexed": false,
          "internalType": "uint256",
          "name": "amount0",
          "type": "uint256"
        },
        {
          "indexed": false,
          "internalType": "uint256",
          "name": "amount1",
          "type": "uint256"
        }
      ],
      "name": "LiquidityAdded",
      "type": "event"
    },
    {
      "anonymous": false,
      "inputs": [
        {
          "indexed": true,
          "internalType": "address",
          "name": "user",
          "type": "address"
        },
        {
          "indexed": true,
          "internalType": "address",
          "name": "fromToken",
          "type": "address"
        },
        {
          "indexed": false,
          "internalType": "uint256",
          "name": "amountIn",
          "type": "uint256"
        },
        {
          "indexed": true,
          "internalType": "address",
          "name": "toToken",
          "type": "address"
        },
        {
          "indexed": false,
          "internalType": "uint256",
          "name": "amountOut",
          "type": "uint256"
        }
      ],
      "name": "Swap",
      "type": "event"
    },
    {
      "inputs": [
        {
          "internalType": "uint256",
          "name": "amount0",
          "type": "uint256"
        },
        {
          "internalType": "uint256",
          "name": "amount1",
          "type": "uint256"
        }
      ],
      "name": "addLiquidity",
      "outputs": [],
      "stateMutability": "nonpayable",
      "type": "function"
    },
    {
      "inputs": [],
      "name": "reserve0",
      "outputs": [
        {
          "internalType": "uint256",
          "name": "",
          "type": "uint256"
        }
      ],
      "stateMutability": "view",
      "type": "function"
    },
    {
      "inputs": [],
      "name": "reserve1",
      "outputs": [
        {
          "internalType": "uint256",
          "name": "",
          "type": "uint256"
        }
      ],
      "stateMutability": "view",
      "type": "function"
    },
    {
      "inputs": [
        {
          "internalType": "address",
          "name": "fromToken",
          "type": "address"
        },
        {
          "internalType": "uint256",
          "name": "amountIn",
          "type": "uint256"
        },
        {
          "internalType": "uint256",
          "name": "minAmountOut",
          "type": "uint256"
        }
      ],
      "name": "swap",
      "outputs": [],
      "stateMutability": "nonpayable",
      "type": "function"
    },
    {
      "inputs": [],
      "name": "token0",
      "outputs": [
        {
          "internalType": "address",
          "name": "",
          "type": "address"
        }
      ],
      "stateMutability": "view",
      "type": "function"
    },
    {
      "inputs": [],
      "name": "token1",
      "outputs": [
        {
          "internalType": "address",
          "name": "",
          "type": "address"
        }
      ],
      "stateMutability": "view",
      "type": "function"
    }
  ],
  "bytecode": "0x608060405234801561001057600080fd5b5060405161143338038061143383398181016040528101906100329190610234565b600073ffffffffffffffffffffffffffffffffffffffff168273ffffffffffffffffffffffffffffffffffffffff161415801561009c5750600073ffffffffffffffffffffffffffffffffffffffff168173ffffffffffffffffffffffffffffffffffffffff1614155b6100db576040517f08c379a00000000000000000000000000000000000000000000000000000000081526004016100d2906102d1565b60405180910390fd5b8073ffffffffffffffffffffffffffffffffffffffff168273ffffffffffffffffffffffffffffffffffffffff1603610149576040517f08c379a00000000000000000000000000000000000000000000000000000000081526004016101409061033d565b60405180910390fd5b816000806101000a81548173ffffffffffffffffffffffffffffffffffffffff021916908373ffffffffffffffffffffffffffffffffffffffff16021790555080600160006101000a81548173ffffffffffffffffffffffffffffffffffffffff021916908373ffffffffffffffffffffffffffffffffffffffff160217905550505061035d565b600080fd5b600073ffffffffffffffffffffffffffffffffffffffff82169050919050565b6000610201826101d6565b9050919050565b610211816101f6565b811461021c57600080fd5b50565b60008151905061022e81610208565b92915050565b6000806040838503121561024b5761024a6101d1565b5b60006102598582860161021f565b925050602061026a8582860161021f565b9150509250929050565b600082825260208201905092915050565b7f5a65726f20616464726573730000000000000000000000000000000000000000600082015250565b60006102bb600c83610274565b91506102c682610285565b602082019050919050565b600060208201905081810360008301526102ea816102ae565b9050919050565b7f53616d6520746f6b656e00000000000000000000000000000000000000000000600082015250565b6000610327600a83610274565b9150610332826102f1565b602082019050919050565b600060208201905081810360008301526103568161031a565b9050919050565b6110c78061036c6000396000f3fe608060405234801561001057600080fd5b50600436106100625760003560e01c80630dfe168114610067578063443cb4bc146100855780635a76f25e146100a35780639cd441da146100c15780639f1d0f59146100dd578063d21220a7146100f9575b600080fd5b61006f610117565b60405161007c91906109ba565b60405180910390f35b61008d61013b565b60405161009a91906109ee565b60405180910390f35b6100ab610141565b6040516100b891906109ee565b60405180910390f35b6100db60048036038101906100d69190610a3a565b610147565b005b6100f760048036038101906100f29190610aa6565b6103dc565b005b610101610953565b60405161010e91906109ba565b60405180910390f35b60008054906101000a900473ffffffffffffffffffffffffffffffffffffffff1681565b60025481565b60035481565b6000821180156101575750600081115b610196576040517f08c379a000000000000000000000000000000000000000000000000000000000815260040161018d90610b56565b60405180910390fd5b60008054906101000a900473ffffffffffffffffffffffffffffffffffffffff1673ffffffffffffffffffffffffffffffffffffffff166323b872dd3330856040518463ffffffff1660e01b81526004016101f393929190610b76565b6020604051808303816000875af1158015610212573d6000803e3d6000fd5b505050506040513d601f19601f820116820180604052508101906102369190610be5565b610275576040517f08c379a000000000000000000000000000000000000000000000000000000000815260040161026c90610c5e565b60405180910390fd5b600160009054906101000a900473ffffffffffffffffffffffffffffffffffffffff1673ffffffffffffffffffffffffffffffffffffffff166323b872dd3330846040518463ffffffff1660e01b81526004016102d493929190610b76565b6020604051808303816000875af11580156102f3573d6000803e3d6000fd5b505050506040513d601f19601f820116820180604052508101906103179190610be5565b610356576040517f08c379a000000000000000000000000000000000000000000000000000000000815260040161034d90610cca565b60405180910390fd5b81600260008282546103689190610d19565b9250508190555080600360008282546103819190610d19565b925050819055503373ffffffffffffffffffffffffffffffffffffffff167fac1d76749e5447b7b16f5ab61447e1bd502f3bb4807af3b28e620d1700a6ee4583836040516103d0929190610d4d565b60405180910390a25050565b60008054906101000a900473ffffffffffffffffffffffffffffffffffffffff1673ffffffffffffffffffffffffffffffffffffffff168373ffffffffffffffffffffffffffffffffffffffff1614806104835750600160009054906101000a900473ffffffffffffffffffffffffffffffffffffffff1673ffffffffffffffffffffffffffffffffffffffff168373ffffffffffffffffffffffffffffffffffffffff16145b6104c2576040517f08c379a00000000000000000000000000000000000000000000000000000000081526004016104b990610dc2565b60405180910390fd5b60008211610505576040517f08c379a00000000000000000000000000000000000000000000000000000000081526004016104fc90610b56565b60405180910390fd5b60008060009054906101000a900473ffffffffffffffffffffffffffffffffffffffff1673ffffffffffffffffffffffffffffffffffffffff168473ffffffffffffffffffffffffffffffffffffffff16149050600080600080846105b357600160009054906101000a900473ffffffffffffffffffffffffffffffffffffffff1660008054906101000a900473ffffffffffffffffffffffffffffffffffffffff166003546002546105fe565b60008054906101000a900473ffffffffffffffffffffffffffffffffffffffff16600160009054906101000a900473ffffffffffffffffffffffffffffffffffffffff166002546003545b93509350935093508373ffffffffffffffffffffffffffffffffffffffff166323b872dd33308a6040518463ffffffff1660e01b815260040161064393929190610b76565b6020604051808303816000875af1158015610662573d6000803e3d6000fd5b505050506040513d601f19601f820116820180604052508101906106869190610be5565b6106c5576040517f08c379a00000000000000000000000000000000000000000000000000000000081526004016106bc90610e2e565b60405180910390fd5b60006103e86103e5896106d89190610e4e565b6106e29190610ebf565b9050600081846106f29190610d19565b83836106fe9190610e4e565b6107089190610ebf565b90508781101561074d576040517f08c379a000000000000000000000000000000000000000000000000000000000815260040161074490610f3c565b60405180910390fd5b60008111801561075d5750828111155b61079c576040517f08c379a000000000000000000000000000000000000000000000000000000000815260040161079390610fa8565b60405180910390fd5b8473ffffffffffffffffffffffffffffffffffffffff1663a9059cbb33836040518363ffffffff1660e01b81526004016107d7929190610fc8565b6020604051808303816000875af11580156107f6573d6000803e3d6000fd5b505050506040513d601f19601f8201168201806040525081019061081a9190610be5565b610859576040517f08c379a00000000000000000000000000000000000000000000000000000000081526004016108509061103d565b60405180910390fd5b86156108965788600260008282546108719190610d19565b92505081905550806003600082825461088a919061105d565b925050819055506108c9565b88600360008282546108a89190610d19565b9250508190555080600260008282546108c1919061105d565b925050819055505b8473ffffffffffffffffffffffffffffffffffffffff168673ffffffffffffffffffffffffffffffffffffffff163373ffffffffffffffffffffffffffffffffffffffff167f5380cf97d8f645d3c4896da60c053458dca03a3a31cec642ac80e1ddf0d8d02a8c8560405161093f929190610d4d565b60405180910390a450505050505050505050565b600160009054906101000a900473ffffffffffffffffffffffffffffffffffffffff1681565b600073ffffffffffffffffffffffffffffffffffffffff82169050919050565b60006109a482610979565b9050919050565b6109b481610999565b82525050565b60006020820190506109cf60008301846109ab565b92915050565b6000819050919050565b6109e8816109d5565b82525050565b6000602082019050610a0360008301846109df565b92915050565b600080fd5b610a17816109d5565b8114610a2257600080fd5b50565b600081359050610a3481610a0e565b92915050565b60008060408385031215610a5157610a50610a09565b5b6000610a5f85828601610a25565b9250506020610a7085828601610a25565b9150509250929050565b610a8381610999565b8114610a8e57600080fd5b50565b600081359050610aa081610a7a565b92915050565b600080600060608486031215610abf57610abe610a09565b5b6000610acd86828701610a91565b9350506020610ade86828701610a25565b9250506040610aef86828701610a25565b9150509250925092565b600082825260208201905092915050565b7f5a65726f20616d6f756e74000000000000000000000000000000000000000000600082015250565b6000610b40600b83610af9565b9150610b4b82610b0a565b602082019050919050565b60006020820190508181036000830152610b6f81610b33565b9050919050565b6000606082019050610b8b60008301866109ab565b610b9860208301856109ab565b610ba560408301846109df565b949350505050565b60008115159050919050565b610bc281610bad565b8114610bcd57600080fd5b50565b600081519050610bdf81610bb9565b92915050565b600060208284031215610bfb57610bfa610a09565b5b6000610c0984828501610bd0565b91505092915050565b7f5472616e7366657220746f6b656e30206661696c656400000000000000000000600082015250565b6000610c48601683610af9565b9150610c5382610c12565b602082019050919050565b60006020820190508181036000830152610c7781610c3b565b9050919050565b7f5472616e7366657220746f6b656e31206661696c656400000000000000000000600082015250565b6000610cb4601683610af9565b9150610cbf82610c7e565b602082019050919050565b60006020820190508181036000830152610ce381610ca7565b9050919050565b7f4e487b7100000000000000000000000000000000000000000000000000000000600052601160045260246000fd5b6000610d24826109d5565b9150610d2f836109d5565b9250828201905080821115610d4757610d46610cea565b5b92915050565b6000604082019050610d6260008301856109df565b610d6f60208301846109df565b9392505050565b7f696e76616c696420746f6b656e00000000000000000000000000000000000000600082015250565b6000610dac600d83610af9565b9150610db782610d76565b602082019050919050565b60006020820190508181036000830152610ddb81610d9f565b9050919050565b7f5472616e7366657220696e206661696c65640000000000000000000000000000600082015250565b6000610e18601283610af9565b9150610e2382610de2565b602082019050919050565b60006020820190508181036000830152610e4781610e0b565b9050919050565b6000610e59826109d5565b9150610e64836109d5565b9250828202610e72816109d5565b91508282048414831517610e8957610e88610cea565b5b5092915050565b7f4e487b7100000000000000000000000000000000000000000000000000000000600052601260045260246000fd5b6000610eca826109d5565b9150610ed5836109d5565b925082610ee557610ee4610e90565b5b828204905092915050565b7f536c6970706167653a20696e73756666696369656e74206f7574707574000000600082015250565b6000610f26601d83610af9565b9150610f3182610ef0565b602082019050919050565b60006020820190508181036000830152610f5581610f19565b9050919050565b7f496e73756666696369656e74206c697175696469747900000000000000000000600082015250565b6000610f92601683610af9565b9150610f9d82610f5c565b602082019050919050565b60006020820190508181036000830152610fc181610f85565b9050919050565b6000604082019050610fdd60008301856109ab565b610fea60208301846109df565b9392505050565b7f5472616e73666572206f7574206661696c656400000000000000000000000000600082015250565b6000611027601383610af9565b915061103282610ff1565b602082019050919050565b600060208201905081810360008301526110568161101a565b9050919050565b6000611068826109d5565b9150611073836109d5565b925082820390508181111561108b5761108a610cea565b5b9291505056fea26469706673582212204a66113377ae68cf2cf9c4cf0e12270be6b26337c79c4744d48e2a8ba5760db264736f6c634300081c0033",
  "linkReferences": {},
  "deployedLinkReferences": {}
}